:020000040800F2
:1000000098060020F9010008BB040008B3040008AA
:10001000B7040008AD040008410500080000000016
:10002000000000000000000000000000BF04000805
:10003000B104000800000000BD040008C10400086D
:10004000130200081302000813020008130200083C
:10005000130200081302000813020008130200082C
:10006000130200081302000813020008130200081C
:10007000130200081302000813020008130200080C
:1000800013020008130200081302000813020008FC
:1000900013020008130200081302000813020008EC
:1000A00013020008130200081302000813020008DC
:1000B00013020008130200081302000813020008CC
:1000C00013020008130200081302000813020008BC
:1000D00013020008130200081302000813020008AC
:1000E000130200081302000813020008130200089C
:1000F000130200081302000813020008130200088C
:10010000130200081302000813020008130200087B
:10011000130200081302000813020008130200086B
:10012000130200081302000813020008130200085B
:10013000130200081302000813020008130200084B
:10014000130200081302000813020008130200083B
:1001500000F002F800F041F80AA090E8000C824498
:100160008344AAF10107DA4501D100F036F8AFF275
:10017000090EBAE80F0013F0010F18BFFB1A43F085
:10018000010318470C0D00002C0D0000103A24BF8D
:1001900078C878C1FAD8520724BF30C830C144BFEC
:1001A00004680C607047000000230024002500262E
:1001B000103A28BF78C1FBD8520728BF30C148BFCA
:1001C0000B607047752900F07980002070471FB5DB
:1001D00000F016FE1FBD10B510BD00F037F9114636
:1001E000FFF7F5FF00F098FC00F055F903B4FFF7B6
:1001F000F2FF03BC00F0A6F9094880470948004710
:10020000FEE7FEE7FEE7FEE7FEE7FEE7FEE7FEE7C6
:10021000FEE7FEE704480549054A064B7047000023
:10022000C50400085101000898000020980600202D
:100230009802002098020020704700000FB4044983
:1002400010B503AA029800F0D3F810BC5DF814FBB7
:100250002C0000202DE9F0410E46044600202062CB
:100260002046E168884730B3252805D0D4E901212C
:100270009047206A401CF2E7E16820460027884743
:10028000050018D0A5F14100192802D820354FF4F7
:1002900000673246294620462760FFF793FF40B1AA
:1002A000012804D0F61D26F007060836D8E7361DCB
:1002B000D6E72846DAE7206ABDE8F0812DE9F0416B
:1002C0000646002410687529314616A510D0AFF3F4
:1002D0000080002802DA404213A507E031688A074F
:1002E00001D512A502E0490704D511A5012401E0BA
:1002F000AFF3008000210A2206F1240709E0B0FBD9
:10030000F2FCB0FBF2F302FB1C00303078541846CC
:10031000491C0028F3D123462A463046BDE8F04167
:1003200000F00CB8000000002D0000002B000000C1
:100330002000000070477047704770472DE9F04774
:100340000D4699469246044600F124080168880645
:1003500004D5E06921F01001216000E00120A842ED
:1003600001DD471B00E00027A1697A1902EB0900B3
:10037000081AA0612078C00602D42046AFF300809E
:10038000002608E0D4E901211AF806009047206A07
:10039000401C761C20624E45F4DB2078C0060AD54E
:1003A0002046AFF3008006E0D4E9012130209047D9
:1003B000206A401C2062381EA7F10107F4DC07E028
:1003C000D4E9012118F805009047206A401C2062FA
:1003D000281EA5F10105F3DC2046AFF3008020784C
:1003E000000602D50220BDE8F0870120FBE70000EF
:1003F000074B70B50D467B4400F011F804462846C3
:1004000000F020F810B14FF0FF3070BD204670BDF5
:100410002B06000001694A1C02610878704700B58C
:100420008FB0CDE901310021059105497944CDE92D
:10043000031011466846FFF70DFF0FB000BD000026
:10044000E5FFFFFF007B00F080007047754600F07D
:1004500029F8AE4605006946534620F00700854658
:1004600018B020B5FFF7D6FEBDE820404FF00006DB
:100470004FF000074FF000084FF0000B21F007018C
:10048000AC46ACE8C009ACE8C009ACE8C009ACE8CF
:10049000C0098D4670470446AFF300802046FFF741
:1004A000A5FE0000004870473800002000BFFEE7AE
:1004B000704700BFFEE700BFFEE770477047704718
:1004C000704700001B48006840F47000194908603C
:1004D0001948006820F00100401C1749086000BF5F
:1004E00015480068C0F340000028F9D01248406861
:1004F00020F0F000F030104948600846406820F0D5
:100500000300486000BF0C484068C0F38100002829
:10051000F9D10948006809490840074908600020E6
:10052000486008634FF41F008860C80301498039A0
:100530000860704788ED00E000100240FFFFF2FE07
:1005400000BFFEE700BF704710B500F003FA0020BF
:1005500000F030F8012000F02DF8022000F02AF819
:10056000002000F04FF8012000F04CF8022000F0CD
:1005700049F800F001F810BD1CB501210B4800F04E
:100580004DF9684600F068FA01208DF80700002058
:100590008DF804008DF806000120009028208DF8C9
:1005A00005006946024800F062FA1CBD020018000E
:1005B000000801401CB504460F4951F824000121F0
:1005C00000F02CF9684600F047FA01208DF807008A
:1005D00000208DF8040010208DF80600074830F840
:1005E0001400009004208DF80500054951F82400FE
:1005F000694600F03CFA1CBD1800002010000020E5
:1006000004000020022800DD7047064931F8101070
:1006100031B1044931F81010034A52F82020116119
:1006200000BFF1E7100000200400002003494968E2
:1006300060F30711014A516070470000001002404A
:100640000349496860F30A21014A5160704700007C
:10065000001002400349496860F3CD21014A51600E
:100660007047000000100240052827D2DFE800F0A4
:10067000030A11181F00134A126861F30002114B9C
:100680001A601CE00F4A126861F310420D4B1A60A9
:1006900015E00C4A126861F318620A4B1A600EE00A
:1006A000084A126A61F30002064B1A6207E0054A23
:1006B000526A61F30002034B5A6200E000BF00BFC0
:1006C0007047000000100240F0B5014600220025EE
:1006D00000260023002400F035F9074627B1012F3A
:1006E00005D0022F2CD105E02D4808602BE02C48C6
:1006F000086028E02B484068C0F30046294840685D
:10070000C0F3834227484068C0F341750DB90F2AF2
:1007100003D12801401C024400E0921C1EB922486B
:10072000504308600BE01F484068C0F3404018B1D8
:100730001D485043086002E019485043086002E039
:100740001748086000BF00BF16484068C0F3031395
:100750001648C45C0868E040486012484068C0F32E
:1007600002231348C45C4868E040C8600D484068F4
:10077000C0F3C2230F48C45C4868E0408860094861
:100780004068C0F3007307484068C0F3813040EA16
:1007900083030948C45C8868B0FBF4F00861F0BDCD
:1007A00000127A000010024000093D000A0E000805
:1007B0001A0E0008220E00082A0E000810B5014685
:1007C0000020094B03EB1142126801F01F040123C2
:1007D000A3401A4001F01F040123A3409A4200D015
:1007E00000E0012010BD00000010024030B50024E0
:1007F000002500E0641C1120FFF7E0FF012802D073
:10080000B4F5405FF6D31120FFF7D8FF012801D0DF
:10081000002500E00125284630BD000010B5012963
:100820000DD10E4B03EB1042126800F01F040123A0
:10083000A3401A43094C04EB10431A600CE0074B29
:1008400003EB1042126800F01F040123A3409A43F7
:10085000024C04EB10431A6010BD0000001002406F
:1008600010B530B9184B5B6823F48033164C6360C5
:1008700017E0154B5B6823F4803303F58033124C8B
:100880006360012805D123465B6823F4003363606D
:1008900007E00D4B5B6823F4003303F500330A4C8B
:1008A0006360094B5B6861F39543074C63600C0917
:1008B000054B5B6864F35E73034C636023465B68BF
:1008C00062F3DF73636010BD0010024016480068D9
:1008D00020F00100401C1449086000BF1248006865
:1008E000C0F340000028F9D00F48406820F0F00025
:1008F000F0300D4948600846406820F00300486029
:1009000000BF09484068C0F381000028F9D10648BB
:1009100000680649084004490860002048600863F0
:100920004FF41F008860704700100240FFFFF2FE86
:100930000349496860F30101014A516070470000B2
:100940000010024002484068C0F381007047000078
:100950000010024010B5042000F0B0F9074800680C
:100960000749B0FBF1F007490860084600684FF4FA
:100970007A7148430449086010BD0000340000202B
:1009800040420F002400002028000020002131E018
:1009900032280ADD194A126832235A434FF0E02305
:1009A0005A61A0F1320290B206E0144A1268424342
:1009B0004FF0E0235A61002000224FF0E0239A61BB
:1009C0001A46126942F001021A6100BF4FF0E0229C
:1009D000116901F001021AB101F48032002AF5D048
:1009E0004FF0E022126922F001024FF0E0231A6179
:1009F00000229A610028CBD1704700002800002017
:100A000030B50446002509E04FF4FA70FFF7BEFF49
:100A10004FF4FA70FFF7BAFF681C85B2A542F3DB0A
:100A200030BD000070B504460D4600BF8021094866
:100A300000F097F90028F9D0A1B2064800F088F933
:100A400000BF4021034800F08CF90028F9D020466F
:100A500070BD0000003801404FF6FF7101600021B9
:100A600081710171042141710121C1717047F0B59B
:100A70000A461588ABB29579032D01D100241AE0FE
:100A8000957965B9557905F00F045579182D01D17F
:100A9000036110E05579282D0DD143610BE0957964
:100AA00005F00805167906F004063543D67906F0F8
:100AB000030645EA0604DDB2A5B1002110E00125D8
:100AC0008D401D405DB105688F000F26BE40B543C7
:100AD000056005688E0004FA06F635430560491C7A
:100AE0000829ECD3FF2B15DD1B12002110E0012596
:100AF0008D401D405DB145688F000F26BE40B54357
:100B0000456045688E0004FA06F635434560491C89
:100B10000829ECD3F0BD000000F02AF8FFF714FD1F
:100B20004FF4E13000F0DEF80848FFF787FB0BE0F8
:100B300007480468601C064A1060214605A0FFF7BC
:100B40007DFB0120FFF75CFFF2E70000440E000888
:100B5000000000207573617274207072696E746693
:100B600020636F756E7465723A2025750D0A00005A
:100B700010B5FFF7ABFE01210846FFF775FD41F206
:100B8000883000F032F900BFFFF730FE0028FBD0BC
:100B900001222F210220FFF763FE01210220FFF72F
:100BA00063FD00BF1920FFF709FE0128FAD10420D8
:100BB000FFF750FD0420FFF743FD0A20FFF736FD45
:100BC0000220FFF7B5FE00BFFFF7BCFE0228FBD1F5
:100BD0004FF4FA7000F009F90820FFF727FD4FF4F1
:100BE000FA7000F002F90020FFF720FD00F002F893
:100BF00010BD00002DE9F047002400250026002745
:100C0000A046FFF79FFE8146B9F1000F06D0B9F16B
:100C1000010F07D0B9F1020F31D107E02248234973
:100C2000086030E02048214908602CE020484068F6
:100C3000C0F300461E484068C0F383441C48406827
:100C4000C0F341750DB90F2C03D12801401C044499
:100C500000E0A41C26B917486043144908600DE061
:100C600013484068C0F3404020B1124860430F4928
:100C7000086003E00C4860430C49086003E00A4840
:100C80000A49086000BF00BF09484068C0F3031765
:100C9000094810F807800548006820FA08F0034961
:100CA0000860BDE8F087000000127A0034000020E0
:100CB0000010024000093D00320E0008042808D14F
:100CC0004FF0E021096941F004014FF0E022116189
:100CD00007E04FF0E021096921F004014FF0E02224
:100CE000116170471CB5044601211648FFF796FDB7
:100CF000012114480C38FFF791FD6846FFF7ACFE60
:100D000001208DF8070000208DF8040008208DF8E0
:100D100006008001009004208DF8050069460A480D
:100D2000FFF7A5FE00231A462146084800F022F8E6
:100D30000121064800F054F80121044800F00CF8A5
:100D40001CBD00000E0018000008014000380140E2
:100D5000C1F3080242607047C26861F34D32C2605D
:100D6000704702461068084008B101207047002013
:100D7000FCE700002DE9F04385B004460F4690469D
:100D800099466846FFF7A0FC1448844201D1029EB0
:100D900000E0039E06EB86004000B0FBF7F50A205A
:100DA000B5FBF0F100FB1150052803D20A20B5FB7A
:100DB000F0F503E00A20B5FBF0F0451CA06865F3F0
:100DC0000F00A060E06868F30C30E060206969F310
:100DD0000D30206105B0BDE8F0830000003801400F
:100DE000C26861F3C302C260704708B50021009178
:100DF00002E00099491C009100998142F9D308BD95
:100E00004FF04070E1EE100A704700000000000053
:100E100000000102030406070809000000000102A7
:100E20000304000000000102030402040608020C8F
:100E30000810000000000000000001020304060783
:100E4000080900007573617274207072696E7466AF
:100E5000206578616D706C653A20726574617267A7
:100E60006574207468652063206C696272617279B0
:100E7000207072696E74662066756E6374696F6E39
:100E800020746F207468652075736172740D0A0098
:100E9000B00E000800000020380000008C0100089F
:100EA000E80E00083800002060060000A8010008D5
:100EB0000000000000140140001401400014014033
:100EC0000020004000800000050018000500180008
:100ED00005001800000000000000000000000000F5
:080EE0000100000000127A007D
:04000005080001519D
:00000001FF
