:020000040800F2
:1000000098060020F1010008A70200089F020008DE
:10001000A3020008990200082D0300080000000058
:10002000000000000000000000000000AB0200081B
:100030009D02000800000000A9020008AD020008AF
:100040000B0200080B0200080B0200080B0200085C
:100050000B0200080B0200080B0200080B0200084C
:100060000B0200080B0200080B0200080B0200083C
:100070000B0200080B0200080B0200080B0200082C
:100080000B0200080B0200080B0200080B0200081C
:100090000B0200080B0200080B0200080B0200080C
:1000A0000B0200080B0200080B0200080B020008FC
:1000B0000B0200080B0200080B0200080B020008EC
:1000C0000B0200080B0200080B0200080B020008DC
:1000D0000B0200080B0200080B0200080B020008CC
:1000E0000B0200080B0200080B0200080B020008BC
:1000F0000B0200080B0200080B0200080B020008AC
:100100000B0200080B0200080B0200080B0200089B
:100110000B0200080B0200080B0200080B0200088B
:100120000B0200080B0200080B0200080B0200087B
:100130000B0200080B0200080B0200080B0200086B
:100140000B0200080B0200080B0200080B0200085B
:1001500000F002F800F03CF80AA090E8000C82449D
:100160008344AAF10107DA4501D100F031F8AFF27A
:10017000090EBAE80F0013F0010F18BFFB1A43F085
:10018000010318473808000058080000103A24BF3F
:1001900078C878C1FAD8520724BF30C830C144BFEC
:1001A00004680C607047000000230024002500262E
:1001B000103A28BF78C1FBD8520728BF30C148BFCA
:1001C0000B6070471FB500F0ECFB1FBD10B510BDF4
:1001D00000F033F81146FFF7F5FF00F006FB00F0E2
:1001E00051F803B4FFF7F2FF03BC00F0A1F80000E0
:1001F0000948804709480047FEE7FEE7FEE7FEE7BB
:10020000FEE7FEE7FEE7FEE7FEE7FEE704480549F6
:10021000054A064B70470000B10200085101000872
:1002200098000020980600209802002098020020E4
:1002300070477047704770477047754600F028F860
:10024000AE4605006946534620F00700854618B0C3
:1002500020B5FFF7DBFFBDE820404FF000064FF070
:1002600000074FF000084FF0000B21F00701AC46EB
:10027000ACE8C009ACE8C009ACE8C009ACE8C0090A
:100280008D4670470446AFF300802046FFF7A9FF74
:10029000004870473400002000BFFEE7704700BFF1
:1002A000FEE700BFFEE770477047704770470000E9
:1002B0001B48006840F4700019490860194800683C
:1002C00020F00100401C1749086000BF1548006875
:1002D000C0F340000028F9D01248406820F0F00038
:1002E000F030104948600846406820F0030048603C
:1002F00000BF0C484068C0F381000028F9D10948CC
:100300000068094908400749086000204860086300
:100310004FF41F008860C8030149803908607047A6
:1003200088ED00E000100240FFFFF2FE00BFFEE794
:1003300000BF704710B500F0A3F9002000F030F8BE
:10034000012000F02DF8022000F02AF8002000F033
:100350004FF8012000F04CF8022000F049F800F0BE
:1003600001F810BD1CB501210B4800F0EDF86846FE
:1003700000F0DCF901208DF8070000208DF8040062
:100380008DF806000120009028208DF805006946B0
:10039000024800F0D6F91CBD020018000008014018
:1003A0001CB504460F4951F82400012100F0CCF897
:1003B000684600F0BBF901208DF8070000208DF899
:1003C000040010208DF80600074830F81400009053
:1003D00004208DF80500054951F82400694600F015
:1003E000B0F91CBD140000200C000020000000200B
:1003F000022800DD7047064931F8101031B1044978
:1004000031F81010034A52F82020116100BFF1E7C3
:100410000C00002000000020022800DD7047094980
:1004200031F8101059B1084951F82010C968054A2F
:1004300032F810205140044A52F82020D16000BF09
:10044000ECE700000C000020000000200349496890
:1004500060F30711014A516070470000001002402C
:100460000349496860F30A21014A5160704700005E
:10047000001002400349496860F3CD21014A5160F0
:100480007047000000100240052827D2DFE800F086
:10049000030A11181F00134A126861F30002114B7E
:1004A0001A601CE00F4A126861F310420D4B1A608B
:1004B00015E00C4A126861F318620A4B1A600EE0EC
:1004C000084A126A61F30002064B1A6207E0054A05
:1004D000526A61F30002034B5A6200E000BF00BFA2
:1004E000704700000010024010B501460020094B83
:1004F00003EB1142126801F01F040123A3401A40CC
:1005000001F01F040123A3409A4200D000E0012023
:1005100010BD00000010024030B50024002500E0AE
:10052000641C1120FFF7E0FF012802D0B4F5405F02
:10053000F6D31120FFF7D8FF012801D0002500E0F5
:100540000125284630BD000010B501290DD10E4B04
:1005500003EB1042126800F01F040123A3401A436A
:10056000094C04EB10431A600CE0074B03EB1042FC
:10057000126800F01F040123A3409A43024C04EBCD
:1005800010431A6010BD00000010024010B530B9D1
:10059000184B5B6823F48033164C636017E0154BEF
:1005A0005B6823F4803303F58033124C63600128C9
:1005B00005D123465B6823F40033636007E00D4BED
:1005C0005B6823F4003303F500330A4C6360094B86
:1005D0005B6861F39543074C63600C09054B5B68EE
:1005E00064F35E73034C636023465B6862F3DF73FE
:1005F000636010BD001002401648006820F0010042
:10060000401C1449086000BF12480068C0F3400055
:100610000028F9D00F48406820F0F000F0300D4974
:1006200048600846406820F00300486000BF094861
:100630004068C0F381000028F9D1064800680649E7
:100640000840044908600020486008634FF41F0018
:100650008860704700100240FFFFF2FE03494968BE
:1006600060F30101014A5160704700000010024030
:1006700002484068C0F3810070470000001002404B
:1006800010B5042000F06EF9074800680749B0FB78
:10069000F1F007490860084600684FF47A71484352
:1006A0000449086010BD00003000002040420F00E7
:1006B0002000002024000020002131E032280ADD43
:1006C000194A126832235A434FF0E0235A61A0F1CD
:1006D000320290B206E0144A126842434FF0E0231F
:1006E0005A61002000224FF0E0239A611A461269F5
:1006F00042F001021A6100BF4FF0E022116901F0DF
:1007000001021AB101F48032002AF5D04FF0E02244
:10071000126922F001024FF0E0231A6100229A616F
:100720000028CBD170470000240000204FF6FF7155
:100730000160002181710171042141710121C171A8
:100740007047F0B50A461588ABB29579032D01D1F3
:1007500000241AE0957965B9557905F00F045579AB
:10076000182D01D1036110E05579282D0DD1436179
:100770000BE0957905F00805167906F00406354377
:10078000D67906F0030645EA0604DDB2A5B10021DC
:1007900010E001258D401D405DB105688F000F26DA
:1007A000BE40B543056005688E0004FA06F6354381
:1007B0000560491C0829ECD3FF2B15DD1B12002115
:1007C00010E001258D401D405DB145688F000F266A
:1007D000BE40B543456045688E0004FA06F63543D1
:1007E0004560491C0829ECD3F0BD00F016F8FFF76E
:1007F000A1FD11E00020FFF70FFEC820FFF75CFF0E
:100800000120FFF709FEC820FFF756FF0220FFF77F
:1008100003FEC820FFF750FFECE710B5FFF7ECFE32
:1008200001210846FFF730FE41F2883000F0AEF8B3
:1008300000BFFFF771FE0028FBD001222F2102200C
:10084000FFF7A4FE01210220FFF71EFE00BF1920C2
:10085000FFF74AFE0128FAD10420FFF70BFE04201F
:10086000FFF7FEFD0A20FFF7F1FD0220FFF7F6FE7D
:1008700000BFFFF7FDFE0228FBD14FF4FA7000F035
:1008800085F80820FFF7E2FD4FF4FA7000F07EF8DB
:100890000020FFF7DBFD00F001F810BD2DE9F04767
:1008A0000024002500260027A046FFF7E1FE814630
:1008B000B9F1000F06D0B9F1010F07D0B9F1020F5D
:1008C00031D107E022482349086030E0204821491F
:1008D00008602CE020484068C0F300461E4840688D
:1008E000C0F383441C484068C0F341750DB90F2C18
:1008F00003D12801401C044400E0A41C26B9174879
:100900006043144908600DE013484068C0F340405C
:1009100020B1124860430F49086003E00C4860436F
:100920000C49086003E00A480A49086000BF00BF9C
:1009300009484068C0F30317094810F807800548C4
:10094000006820FA08F003490860BDE8F08700005D
:1009500000127A00300000200010024000093D0023
:10096000AC090008042808D14FF0E021096941F0E2
:1009700004014FF0E022116107E04FF0E021096926
:1009800021F004014FF0E0221161704708B5002109
:10099000009102E00099491C009100998142F9D32D
:1009A00008BD4FF04070E1EE100A704700000000F3
:1009B000000000000102030406070809DC09000822
:1009C00000000020340000008C010008100A00081C
:1009D0003400002064060000A80100080014014053
:1009E000001401400014014000200040008000007D
:1009F00005001800050018000500180000000000A0
:100A000000000000000000000100000000127A0059
:04000005080001519D
:00000001FF
