:020000040800F2
:1000000098070020F1010008A70200089F020008DD
:10001000A3020008990200082D0300080000000058
:10002000000000000000000000000000AB0200081B
:100030009D02000800000000A9020008AD020008AF
:100040000B0200080B0200080B0200080B0200085C
:100050000B0200080B0200080B0200080B0200084C
:100060000B0200080B0200080B0200080B0200083C
:100070000B0200080B0200080B0200080B0200082C
:100080000B0200080B0200080B0200080B0200081C
:100090000B0200080B0200080B0200080B0200080C
:1000A0000B0200080B0200080B0200080B020008FC
:1000B0000B0200080B0200080B0200080B020008EC
:1000C0000B0200080B0200080B0200080B020008DC
:1000D0000B0200080B0200080B0200080B020008CC
:1000E0000B0200080B0200080B0200080B020008BC
:1000F0000B0200080B0200080B0200080B020008AC
:100100000B0200080B0200080B0200080B0200089B
:100110000B0200080B0200080B0200080B0200088B
:100120000B0200080B0200080B0200080B0200087B
:100130000B0200080B0200080B0200080B0200086B
:100140000B0200080B0200080B0200080B0200085B
:1001500000F002F800F03CF80AA090E8000C82449D
:100160008344AAF10107DA4501D100F031F8AFF27A
:10017000090EBAE80F0013F0010F18BFFB1A43F085
:10018000010318479C0C0000BC0C0000103A24BF6F
:1001900078C878C1FAD8520724BF30C830C144BFEC
:1001A00004680C607047000000230024002500262E
:1001B000103A28BF78C1FBD8520728BF30C148BFCA
:1001C0000B6070471FB500F00AFE1FBD10B510BDD3
:1001D00000F033F81146FFF7F5FF00F0A3FB00F045
:1001E00051F803B4FFF7F2FF03BC00F0A1F80000E0
:1001F0000948804709480047FEE7FEE7FEE7FEE7BB
:10020000FEE7FEE7FEE7FEE7FEE7FEE704480549F6
:10021000054A064B70470000B10200085101000872
:1002200098010020980700209803002098030020E0
:1002300070477047704770477047754600F028F860
:10024000AE4605006946534620F00700854618B0C3
:1002500020B5FFF7DBFFBDE820404FF000064FF070
:1002600000074FF000084FF0000B21F00701AC46EB
:10027000ACE8C009ACE8C009ACE8C009ACE8C0090A
:100280008D4670470446AFF300802046FFF7A9FF74
:10029000004870473401002000BFFEE7704700BFF0
:1002A000FEE700BFFEE770477047704770470000E9
:1002B0001B48006840F4700019490860194800683C
:1002C00020F00100401C1749086000BF1548006875
:1002D000C0F340000028F9D01248406820F0F00038
:1002E000F030104948600846406820F0030048603C
:1002F00000BF0C484068C0F381000028F9D10948CC
:100300000068094908400749086000204860086300
:100310004FF41F008860C8030149803908607047A6
:1003200088ED00E000100240FFFFF2FE00BFFEE794
:1003300000BF704710B500F02FFA002000F030F831
:10034000012000F02DF8022000F02AF8002000F033
:100350004FF8012000F04CF8022000F049F800F0BE
:1003600001F810BD1CB501210B4800F079F9684671
:1003700000F079FA01208DF8070000208DF80400C4
:100380008DF806000120009028208DF805006946B0
:10039000024800F073FA1CBD02001800000801407A
:1003A0001CB504460F4951F82400012100F058F90A
:1003B000684600F058FA01208DF8070000208DF8FB
:1003C000040010208DF80600074830F81400009053
:1003D00004208DF80500054951F82400694600F015
:1003E0004DFA1CBD980000209000002084000020E1
:1003F000022800DD7047064931F8101031B1044978
:1004000031F81010034A52F82020116100BFF1E7C3
:100410009000002084000020022800DD7047094978
:1004200031F8101059B1084951F82010C968054A2F
:1004300032F810205140044A52F82020D16000BF09
:10044000ECE70000900000208400002010B5034677
:1004500007E018780C78A04201D0002010BD5B1C8A
:10046000491C1000A2F10104A2B2F2D10120F5E76B
:100470000349496860F30711014A51607047000061
:10048000001002400349496860F30A21014A5160A3
:1004900070470000001002400349496860F3CD2115
:1004A000014A51607047000000100240052827D221
:1004B000DFE800F0030A11181F00134A126861F305
:1004C0000002114B1A601CE00F4A126861F31042DF
:1004D0000D4B1A6015E00C4A126861F318620A4B62
:1004E0001A600EE0084A126A61F30002064B1A62B3
:1004F00007E0054A526A61F30002034B5A6200E0CA
:1005000000BF00BF7047000000100240F0B5014678
:100510000022002500260023002400F035F90746BC
:1005200027B1012F05D0022F2CD105E02D480860FE
:100530002BE02C48086028E02B484068C0F30046B8
:1005400029484068C0F3834227484068C0F341759A
:100550000DB90F2A03D12801401C024400E0921C6F
:100560001EB92248504308600BE01F484068C0F3A2
:10057000404018B11D485043086002E019485043FC
:10058000086002E01748086000BF00BF16484068D6
:10059000C0F303131648C45C0868E0404860124882
:1005A0004068C0F302231348C45C4868E040C86058
:1005B0000D484068C0F3C2230F48C45C4868E0405F
:1005C000886009484068C0F3007307484068C0F37A
:1005D000813040EA83030948C45C8868B0FBF4F0CA
:1005E0000861F0BD00127A000010024000093D00D1
:1005F000E80D0008F80D0008000E0008080E0008BD
:1006000010B501460020094B03EB1142126801F0BE
:100610001F040123A3401A4001F01F040123A3403B
:100620009A4200D000E0012010BD000000100240FE
:1006300030B50024002500E0641C1120FFF7E0FF26
:10064000012802D0B4F5405FF6D31120FFF7D8FFA0
:10065000012801D0002500E00125284630BD00001A
:1006600010B501290DD10E4B03EB1042126800F0BA
:100670001F040123A3401A43094C04EB10431A60E2
:100680000CE0074B03EB1042126800F01F0401233B
:10069000A3409A43024C04EB10431A6010BD0000C3
:1006A0000010024010B530B9184B5B6823F480335A
:1006B000164C636017E0154B5B6823F4803303F539
:1006C0008033124C6360012805D123465B6823F414
:1006D0000033636007E00D4B5B6823F4003303F5E0
:1006E00000330A4C6360094B5B6861F39543074C28
:1006F00063600C09054B5B6864F35E73034C6360D5
:1007000023465B6862F3DF73636010BD0010024034
:100710001648006820F00100401C1449086000BF22
:1007200012480068C0F340000028F9D00F48406824
:1007300020F0F000F0300D4948600846406820F095
:100740000300486000BF09484068C0F381000028EA
:10075000F9D10648006806490840044908600020AD
:10076000486008634FF41F00886070470010024023
:10077000FFFFF2FE0349496860F30101014A51603D
:10078000704700000010024002484068C0F381003A
:10079000704700000010024010B5042000F002FA7B
:1007A000074800680749B0FBF1F0074908600846B0
:1007B00000684FF47A7148430449086010BD000096
:1007C000B400002040420F00A4000020A800002038
:1007D000002131E032280ADD194A126832235A43D7
:1007E0004FF0E0235A61A0F1320290B206E0144AC1
:1007F000126842434FF0E0235A61002000224FF07C
:10080000E0239A611A46126942F001021A6100BFA0
:100810004FF0E022116901F001021AB101F48032B7
:10082000002AF5D04FF0E022126922F001024FF0C9
:10083000E0231A6100229A610028CBD170470000A2
:10084000A800002030B50446002509E04FF4FA70F6
:10085000FFF7BEFF4FF4FA70FFF7BAFF681C85B2CE
:10086000A542F3DB30BD4FF6FF71016000218171BD
:100870000171042141710121C1717047F0B50A462F
:100880001588ABB29579032D01D100241AE0957932
:1008900065B9557905F00F045579182D01D103611B
:1008A00010E05579282D0DD143610BE0957905F0C5
:1008B0000805167906F004063543D67906F00306D6
:1008C00045EA0604DDB2A5B1002110E001258D4006
:1008D0001D405DB105688F000F26BE40B543056021
:1008E00005688E0004FA06F635430560491C0829A0
:1008F000ECD3FF2B15DD1B12002110E001258D40EC
:100900001D405DB145688F000F26BE40B543456070
:1009100045688E0004FA06F635434560491C0829EF
:10092000ECD3F0BD00F098F8FFF704FD00F04EF9AD
:100930000220FFF771FD24E000BF80213A4800F05B
:10094000D4F90028F9D0394802780078401C374B98
:1009500018703748815C344800F0BEF900BF202190
:10096000344800F0C2F90028F9D0324800F0B0F95C
:10097000C2B2314801780078401C2F4B18702F48C4
:1009800042542D4800782E4909788842D4DB012052
:10099000FFF742FD24E000BF8021264800F0A5F9C2
:1009A0000028F9D0274802780078401C254B1870A1
:1009B0002548815C1F4800F08FF900BF20211A48AC
:1009C00000F093F90028F9D0174800F081F9C1B27E
:1009D0001E4802780078401C1C4B18701C4881543B
:1009E0001A4800781B4909788842D4DB0020FFF7B9
:1009F00013FD17E03D2211490D48FFF727FD88B18F
:100A00003D2213491048FFF721FD58B10020FFF7A0
:100A100003FD0120FFF700FD0220FFF7FDFC012090
:100A2000FFF710FFE6E70000004400407C000020D4
:100A300000000020004800407F000020F50000205A
:100A4000800000207D0000203E0000207E0000206D
:100A5000B80000208100002010B5FFF759FE0121E9
:100A60000846FFF723FD41F2883000F0ADF900BFE2
:100A7000FFF7DEFD0028FBD001222F210220FFF727
:100A800011FE01210220FFF711FD00BF1920FFF721
:100A9000B7FD0128FAD10420FFF7FEFC0420FFF780
:100AA000F1FC0A20FFF7E4FC0220FFF763FE00BF21
:100AB000FFF76AFE0228FBD14FF4FA7000F084F9C8
:100AC0000820FFF7D5FC4FF4FA7000F07DF9002004
:100AD000FFF7CEFC00F002F810BD00002DE9F04752
:100AE0000024002500260027A046FFF74DFE814682
:100AF000B9F1000F06D0B9F1010F07D0B9F1020F1B
:100B000031D107E022482349086030E020482149DC
:100B100008602CE020484068C0F300461E4840684A
:100B2000C0F383441C484068C0F341750DB90F2CD5
:100B300003D12801401C044400E0A41C26B9174836
:100B40006043144908600DE013484068C0F340401A
:100B500020B1124860430F49086003E00C4860432D
:100B60000C49086003E00A480A49086000BF00BF5A
:100B700009484068C0F30317094810F80780054882
:100B8000006820FA08F003490860BDE8F08700001B
:100B900000127A00B40000200010024000093D005D
:100BA000100E0008042808D14FF0E021096941F037
:100BB00004014FF0E022116107E04FF0E0210969E4
:100BC00021F004014FF0E022116170471CB50121B2
:100BD0003948FFF745FD01213848FFF741FD012164
:100BE0003548401CFFF73CFD01213448401CFFF70D
:100BF00037FD6846FFF737FE01208DF8070000201B
:100C00008DF8040008208DF80600042000908DF86F
:100C1000050069462A48FFF731FE4FF480600090D6
:100C200069462848FFF72AFE01208DF807000020BA
:100C30008DF804008DF806000820009018208DF82B
:100C4000050069461E48FFF719FE4FF4006000904A
:100C500069461C48FFF712FE00231A464FF4E131A3
:100C6000194800F04BF80021174800F07DF80121E9
:100C7000154800F0A4F80121134800F09BF8012169
:100C8000114800F02DF800231A464FF4E1310F48C7
:100C900000F034F800210D4800F066F801210B48FF
:100CA00000F08DF80121094800F084F8012107487F
:100CB00000F016F81CBD000011001C000200180016
:100CC00000080140000C0140004400400048004082
:100CD0000146486880B27047C1F30802426070471D
:100CE000C26861F34D32C260704702461068084026
:100CF00008B1012070470020FCE700002DE9F04317
:100D000085B004460F46904699466846FFF7FEFBBD
:100D10001448844201D1029E00E0039E06EB860047
:100D20004000B0FBF7F50A20B5FBF0F100FB1150D5
:100D3000052803D20A20B5FBF0F503E00A20B5FB35
:100D4000F0F0451CA06865F30F00A060E06868F350
:100D50000C30E060206969F30D30206105B0BDE81A
:100D6000F08300000038014041B9C26822F40072EB
:100D7000C260C26822F48062C2601AE001290AD10E
:100D8000C26822F40072C260C26822F4806202F576
:100D90008062C2600DE002290BD1C26822F40072A9
:100DA00002F50072C260C26822F4806202F58062BD
:100DB000C2607047C26861F38202C2607047C26855
:100DC00061F3C302C260704708B50021009102E0E0
:100DD0000099491C009100998142F9D308BD4FF058
:100DE0004070E1EE100A70470000000000000000B3
:100DF00001020304060708090000000001020304C1
:100E0000000000000102030402040608020C08109E
:100E100000000000000000000102030406070809AA
:100E2000400E000800000020B80000008C010008FF
:100E3000F80E0008B8000020E0060000A801000835
:100E40007573617274207472616E7366657220626C
:100E50007920696E746572727570743A2075736169
:100E6000727432202D3E2075736172743320757355
:100E7000696E6720696E746572727570740075733F
:100E8000617274207472616E73666572206279207B
:100E9000696E746572727570743A207573617274DC
:100EA00033202D3E20757361727432207573696E24
:100EB0006720696E746572727570740000000000BE
:100EC0003D3D0000001401400014014000140140A9
:100ED00000200040008000000500180005001800F8
:100EE00005001800000000000000000000000000E5
:080EF0000100000000127A006D
:04000005080001519D
:00000001FF
